:1000000029C000003AC0000038C0000036C000001F
:1000100034C0000032C0000030C000002EC000001C
:100020002CC000002AC0000028C0000026C000002C
:1000300024C0000022C0000020C000001EC000003C
:100040001CC000001AC0000018C0000016C000004C
:1000500014C0000011241FBECFE5D8E0DEBFCDBF25
:1000600010E0A0E6B0E0E6EAF3E002C005900D92F1
:10007000A836B107D9F78AD194C1C2CF80EF81BB2E
:100080008FEF82BB08954F925F927F928F929F92E3
:10009000AF92BF92CF92DF92EF92FF920F931F9396
:1000A000CF93DF930F2EF0E6EF2EF0E0FF2EF02D32
:1000B00060E070E0E70121E030E099249394812C26
:1000C000B92CA82C42B3C901088002C0880F991F1F
:1000D0000A94E2F7842B82BB42B3C901098002C0B3
:1000E000880F991F0A94E2F7842B82BB42B3C9019F
:1000F0000A8002C0880F991F0A94E2F7842B82BB02
:1001000042B3C9010B8002C0880F991F0A94E2F71D
:10011000842B82BB92B3F701A901019002C0440F66
:10012000551F0A94E2F77F01842F8095892382BBB3
:10013000A4E6B0E040E050E0412C512C04C0FFEFB9
:100140004F1A5F0A119680B3FD014F5F5F4F90E039
:100150000C9002C0959587950A94E2F7792C6C0172
:1001600011E0C122DD2480FD782C70BACD2809F081
:1001700055C080B390E0008002C0959587950A94A1
:10018000E2F77B2C6C0111E0C122DD2480FD7A2C8A
:1001900070BACD2871F361307105C9F024F461158E
:1001A000710541F03BC062307105F1F063307105BB
:1001B00041F134C0C20141145104E1F18130910593
:1001C000D9F182309105D1F1039741F539C0C201CF
:1001D00041145104B9F181309105B1F1823091059A
:1001E000A9F10397D9F434C0C2014114510491F12B
:1001F0008130910589F18230910581F1039771F485
:100200002FC0C2014114510469F18130910561F19F
:100210008230910559F1039769F52AC044305105A0
:100220000CF48DCF6F5F7F4F6430710509F04ACFBA
:1002300081E425C087E323C084E321C081E31FC09C
:1002400083E41DC088E31BC085E319C082E317C0A7
:1002500080E315C089E313C086E311C083E30FC0B8
:100260008DE30DC08FE20BC088E709C08DE207C0A7
:100270008BE205C0443051050CF461CF81E4DF917D
:10028000CF911F910F91FF90EF90DF90CF90BF9093
:10029000AF909F908F907F905F904F900895C398FC
:1002A00083ED90E30197F1F700C00000C39A089531
:1002B0008AB38F708ABBB99ABA9ABB9AC29AC1980C
:1002C000EEDF8FEF8ABBC2980895CF93C82FF0DF7F
:1002D0008BB38F709C2F907F892B8BBBC298C1985A
:1002E00083ED90E30197F1F700C00000D8DF8BB3F6
:1002F000282F2F7030E1C39FC0011124822B8BBBAC
:10030000C298C19883ED90E30197F1F700C0000017
:10031000C6DFCF91089581E0D8CF089587E893E1B3
:100320000197F1F700C00000C3DF82E0CEDF88E272
:10033000CCDF86E0CADF80E8C8DF8FE0C6CF089553
:10034000CF93C82FB5DFC298C19A8BB38F709C2F03
:10035000907F892B8BBB81EE94E00197F1F700C071
:1003600000009DDF8BB3282F2F7030E1C39FC001A9
:100370001124822B8BBBC298C19A81EE94E0019725
:10038000F1F700C000008BDFCF910895C7DF76DE64
:100390007ADE833411F4BFDFFBCF8134C9F3D0DFC1
:0603A000F7CFF894FFCF37
:0803A600040506070001020333
:00000001FF
