:1000000029C000003AC0000038C0000036C000001F
:1000100034C0000032C0000030C000002EC000001C
:100020002CC000002AC0000028C0000026C000002C
:1000300024C0000022C0000020C000001EC000003C
:100040001CC000001AC0000018C0000016C000004C
:1000500014C0000011241FBECFE5D8E0DEBFCDBF25
:1000600010E0A0E6B0E0ECE1F1E002C005900D92F6
:10007000A036B107D9F73ED04FC0C2CFDB011196F1
:100080002C911197213089F018F02230D9F0089581
:10009000FC0132912C91209523232083FC01308197
:1000A0002C912095232320830895FC0132912C91DB
:1000B000209523232083FC0130812C91209523233C
:1000C00020830895FC0192918C91892B808308955F
:1000D00060E070E080E4FB01808382E0818388E35C
:1000E00090E0CCDF6C986E9A08958FB9779BFECF25
:1000F0008FB10895EDDF8FEF8ABBC0E02FE38DE075
:1001000093E0215080409040E1F700C000008C2F28
:0C011000ECDF8BBBCF5FF2CFF894FFCF89
:00000001FF
