:100000000C942D000C948F000C94B2000C94D5002D
:100010000C94F8000C94F8000C94F8000C94F80080
:100020000C94F8000C94F8000C94F8000C94F80070
:100030000C94F8000C94F8000C94F8000C94F80060
:100040000C94F8000C94F8000C94F8000C94F80050
:100050000C94F80000600061800011241FBECFE501
:10006000D8E0DEBFCDBFE4E5F0E040E017C0B591D9
:10007000A59135912591059107FD0CC0959185912C
:10008000EF01F92FE82F05900D92A217B307D9F7CA
:10009000FE0104C01D92A217B307E1F7E935F4078A
:0E00A00031F70E9457000C945500F894FFCFE2
:1000AE0084B38F6084BB85B3807F85BB85B7826048
:1000BE0085BF8BB780648BBF8FB780688FBF81B3CE
:1000CE008B7F81BB82B3846082BB85B78D6085BF19
:1000DE0084B784BF8BB7806E8BBF8FB780688FBF9E
:1000EE007894809160008130E1F72FE38DE093E00A
:1000FE00215080409040E1F700C0000080916000E8
:10010E00813079F785B3815085BB10926000E9CFBD
:10011E001F920F920FB60F9211248F939F9382B35B
:10012E00806882BB87EA91E60197F1F700C0000074
:10013E0082B38F7782BB87EA91E60197F1F700C011
:10014E0000008AB780648ABF9F918F910F900FBE77
:06015E000F901F901895A0
:100164001F920F920FB60F9211248F939F9382B315
:10017400806882BB87EA91E60197F1F700C000002E
:1001840082B38F7782BB87EA91E60197F1F700C0CB
:1001940000008AB780688ABF9F918F910F900FBE2D
:0601A4000F901F9018955A
:1001AA001F920F920FB60F9211248F939F9382B3CF
:1001BA00806882BB87EA91E60197F1F700C00000E8
:1001CA0082B38F7782BB87EA91E60197F1F700C085
:1001DA0000008AB780628ABF9F918F910F900FBEED
:0601EA000F901F90189514
:0401F0000C9400006B
:00000001FF
