:1000000029C000003AC0000038C0000036C000001F
:1000100034C0000032C0000030C000002EC000001C
:100020002CC000002AC0000028C0000026C000002C
:1000300024C0000022C0000020C000001EC000003C
:100040001CC000001AC0000018C0000016C000004C
:1000500014C0000011241FBECFE5D8E0DEBFCDBF25
:1000600010E0A0E6B0E0E4E4F1E002C005900D92FB
:10007000A036B107D9F752D063C0C2CFDB011196C9
:100080002C911197213089F018F02230D9F0089581
:10009000FC0132912C91209523232083FC01308197
:1000A0002C912095232320830895FC0132912C91DB
:1000B000209523232083FC0130812C91209523233C
:1000C00020830895FC0192918C91892B808308955F
:1000D0001F93CF93DF93C0E0D0E080E2888312E0EB
:1000E0001983BE0188E390E0C9DF80E88883198323
:1000F000BE0188E390E0C2DF80E188831983BE01FE
:1001000088E390E0BBDF689A6C9A6E9ADF91CF919A
:100110001F9108958FB98EB18FB10895D9DF8FEFF8
:100120008ABBC0E02FE38DE093E0215080409040F7
:10013000E1F700C000008C2FEDDF8BBBCF5FF2CF6B
:04014000F894FFCF61
:00000001FF
