:1000000029C000003AC0000038C0000036C000001F
:1000100034C0000032C0000030C000002EC000001C
:100020002CC000002AC0000028C0000026C000002C
:1000300024C0000022C0000020C000001EC000003C
:100040001CC000001AC0000018C0000016C000004C
:1000500014C0000011241FBECFE5D8E0DEBFCDBF25
:1000600010E0A0E6B0E0E0E8F4E002C005900D92F8
:10007000AE36B107D9F7E1D101C2C2CF1F93CF93FA
:10008000DF9300D0CDB7DEB780E1898312E01A8319
:10009000BE016F5F7F4F82E390E050D180E28983A1
:1000A0001A83BE016F5F7F4F82E390E047D180E407
:1000B00089831A83BE016F5F7F4F82E390E03ED158
:1000C00080E889831A83BE016F5F7F4F82E390E0EF
:1000D00035D119831A83BE016F5F7F4F88E390E0AB
:1000E0002DD184E089831A83BE016F5F7F4F88E33F
:1000F00090E024D188E089831A83BE016F5F7F4F2F
:1001000088E390E01BD10F900F90DF91CF911F916A
:100110000895CF93DF9300D0CDB7DEB780E1898318
:100120001A82BE016F5F7F4F82E390E007D180E2C9
:1001300089831A82BE016F5F7F4F82E390E0FED019
:1001400080E489831A82BE016F5F7F4F82E390E073
:10015000F5D080E889831A82BE016F5F7F4F82E30A
:1001600090E0ECD00F900F90DF91CF91089541E097
:1001700068E088E390E00CD183ED90E30197F1F71C
:1001800000C0000040E068E088E390E001C108950D
:100190001F93CF93DF9300D0CDB7DEB7BADF41E036
:1001A00068E088E390E0F4D012E019831A83BE017E
:1001B0006F5F7F4F88E390E0C1D084E089831A832A
:1001C000BE016F5F7F4F88E390E0B8D088E08983FD
:1001D0001A83BE016F5F7F4F88E390E0AFD041E0AC
:1001E00064E088E390E0D4D040E062E088E390E00F
:1001F000CFD0BDDF40E064E088E390E0C9D00F904D
:100200000F90DF91CF911F910895CF93C82FC0DF3A
:100210006C2F607F8BE390E0CAD040E062E088E31F
:1002200090E0B6D040E064E088E390E0B1D09FDF9A
:100230006C2F6295607F8BE390E0B9D040E062E084
:1002400088E390E0A5D040E064E088E390E0A0D0AF
:100250008EDFCF91089581E0D8CF089587E893E1AC
:100260000197F1F700C0000093DF08DF81EE94E012
:100270000197F1F700C0000040E062E088E390E001
:1002800087D040E064E088E390E082D040E068E01E
:1002900088E390E07DD082E0B8DF88E2B6DF86E0D8
:1002A000B4DF80E8B2DF8FE0B0CF0895CF93C82FDE
:1002B0006FDF6C2F607F8BE390E079D040E064E0EB
:1002C00088E390E065D041E062E088E390E060D0B0
:1002D0004EDF6C2F6295607F8BE390E068D040E04A
:1002E00064E088E390E054D041E062E088E390E08D
:1002F0004FD03DDFCF9108950F931F93CF93DF939E
:10030000D82FC92F45DF0D2F1C2FC0E00DC0CF5FA8
:10031000CDDFC03119F480EC78DF06C0C03221F4A3
:100320009ADF80E872DFC0E0F80181918F01181632
:1003300074F3DF91CF911F910F910895DB01119616
:100340002C911197213089F018F02230D9F00895BE
:10035000FC0132912C91209523232083FC013081D4
:100360002C912095232320830895FC0132912C9118
:10037000209523232083FC0130812C912095232379
:1003800020830895FC0192918C91892B808308959C
:10039000413029F4FC012081622B608308954111D2
:1003A00005C0FC0120816095622360830895FC01F3
:1003B0006083089583E389B959988AB188618AB9BD
:1003C00008955D9BFECF8CB908955F9BFECF8CB1E5
:1003D00008950F931F93CF93FC018081882351F0E0
:1003E0008F01C0E0EEDFCF5FF801EC0FF11D8081DF
:1003F0008111F8CFCF911F910F910895EF92FF9245
:100400000F931F93CF937C01E0DFF701808383324A
:1004100059F0C0E0CF5F87010C0F111DD6DFF80146
:1004200080838332B9F701C08701F8011082CF9130
:100430001F910F91FF90EF90089510DFBBDF81E4D3
:10044000C0DF82E4BEDF84E4BCDF8FE4BADF80E695
:1004500090E0BFDF86E690E04FDF88E790E0CEDFF8
:10046000FADE88E790E048DF2FE986E891E0215046
:1004700080409040E1F700C00000EFCFF894FFCF3C
:0E0480004142444F0D004142444F23230000EF
:00000001FF
