:1000000029C000003AC0000038C0000036C000001F
:1000100034C0000032C0000030C000002EC000001C
:100020002CC000002AC0000028C0000026C000002C
:1000300024C0000022C0000020C000001EC000003C
:100040001CC000001AC0000018C0000016C000004C
:1000500014C0000011241FBECFE5D8E0DEBFCDBF25
:1000600010E0A0E6B0E0E6E3F4E002C005900D92F7
:10007000A037B107D9F7A6D1DCC1C2CF1F93CF9368
:10008000DF9300D0CDB7DEB780E1898312E01A8319
:10009000BE016F5F7F4F82E390E050D180E28983A1
:1000A0001A83BE016F5F7F4F82E390E047D180E407
:1000B00089831A83BE016F5F7F4F82E390E03ED158
:1000C00080E889831A83BE016F5F7F4F82E390E0EF
:1000D00035D119831A83BE016F5F7F4F88E390E0AB
:1000E0002DD184E089831A83BE016F5F7F4F88E33F
:1000F00090E024D188E089831A83BE016F5F7F4F2F
:1001000088E390E01BD10F900F90DF91CF911F916A
:100110000895CF93DF9300D0CDB7DEB780E1898318
:100120001A82BE016F5F7F4F82E390E007D180E2C9
:1001300089831A82BE016F5F7F4F82E390E0FED019
:1001400080E489831A82BE016F5F7F4F82E390E073
:10015000F5D080E889831A82BE016F5F7F4F82E30A
:1001600090E0ECD00F900F90DF91CF91089541E097
:1001700068E088E390E014D183ED90E30197F1F714
:1001800000C0000040E068E088E390E009C1089505
:100190001F93CF93DF9300D0CDB7DEB7BADF41E036
:1001A00068E088E390E0FCD012E019831A83BE0176
:1001B0006F5F7F4F88E390E0C1D084E089831A832A
:1001C000BE016F5F7F4F88E390E0B8D088E08983FD
:1001D0001A83BE016F5F7F4F88E390E0AFD041E0AC
:1001E00064E088E390E0DCD040E062E088E390E007
:1001F000D7D0BDDF40E064E088E390E0D1D00F903D
:100200000F90DF91CF911F910895CF93C82FC0DF3A
:100210006C2F607F8BE390E0D2D040E062E088E317
:1002200090E0BED040E064E088E390E0B9D09FDF8A
:100230006C2F6295607F8BE390E0C1D040E062E07C
:1002400088E390E0ADD040E064E088E390E0A8D09F
:100250008EDFCF91089581E0D8CF089587E893E1AC
:100260000197F1F700C0000093DF08DF81EE94E012
:100270000197F1F700C0000040E062E088E390E001
:100280008FD040E064E088E390E08AD040E068E00E
:1002900088E390E085D082E0B8DF88E2B6DF86E0D0
:1002A000B4DF80E8B2DF8FE0B0CF0895CF93C82FDE
:1002B0006FDF6C2F607F8BE390E081D040E064E0E3
:1002C00088E390E06DD041E062E088E390E068D0A0
:1002D0004EDF6C2F6295607F8BE390E070D040E042
:1002E00064E088E390E05CD041E062E088E390E085
:1002F00057D03DDFCF9108950F931F93CF93DF9396
:10030000D82FC92F45DF0D2F1C2FC0E00DC0CF5FA8
:10031000CDDFC03119F480EC78DF06C0C03221F4A3
:100320009ADF80E872DFC0E0F80181918F01181632
:1003300074F3DF91CF911F910F910895DB01119616
:100340002C911197213089F018F02230D9F00895BE
:10035000FC0132912C91209523232083FC013081D4
:100360002C912095232320830895FC0132912C9118
:10037000209523232083FC0130812C912095232379
:1003800020830895FC0192918C91892B808308959C
:100390000297FC018081682381E009F480E00895E0
:1003A000413029F4FC012081622B608308954111C2
:1003B00005C0FC0120816095622360830895FC01E3
:1003C00060830895CF93DF9300D0CDB7DEB780E888
:1003D000898382E08A83BE016F5F7F4F82E390E072
:1003E000ADDF81E089831A82BE016F5F7F4F82E3B8
:1003F00090E0A4DF33DF80E690E07EDF61E082E31F
:1004000090E0C6DF813031F441E060E882E390E0C3
:10041000C7DF05C040E060E882E390E0C1DF2FE382
:100420008DE093E0215080409040E1F700C0000053
:06043000E5CFF894FFCFB8
:100436004C4541524E20494E2044455054480000F8
:00000001FF
